{
  "_format": "hh-sol-artifact-1",
  "contractName": "Tracking",
  "sourceName": "contracts/Tracking.sol",
  "abi": [
    {
      "inputs": [],
      "stateMutability": "nonpayable",
      "type": "constructor"
    },
    {
      "anonymous": false,
      "inputs": [
        {
          "indexed": true,
          "internalType": "address",
          "name": "sender",
          "type": "address"
        },
        {
          "indexed": true,
          "internalType": "address",
          "name": "receiver",
          "type": "address"
        },
        {
          "indexed": false,
          "internalType": "uint256",
          "name": "pickuptime",
          "type": "uint256"
        },
        {
          "indexed": false,
          "internalType": "uint256",
          "name": "distance",
          "type": "uint256"
        },
        {
          "indexed": false,
          "internalType": "uint256",
          "name": "price",
          "type": "uint256"
        }
      ],
      "name": "Shipmentcreated",
      "type": "event"
    },
    {
      "anonymous": false,
      "inputs": [
        {
          "indexed": true,
          "internalType": "address",
          "name": "sender",
          "type": "address"
        },
        {
          "indexed": true,
          "internalType": "address",
          "name": "receiver",
          "type": "address"
        },
        {
          "indexed": false,
          "internalType": "uint256",
          "name": "deliverytime",
          "type": "uint256"
        }
      ],
      "name": "Shipmentdelivered",
      "type": "event"
    },
    {
      "anonymous": false,
      "inputs": [
        {
          "indexed": true,
          "internalType": "address",
          "name": "sender",
          "type": "address"
        },
        {
          "indexed": true,
          "internalType": "address",
          "name": "receiver",
          "type": "address"
        },
        {
          "indexed": false,
          "internalType": "uint256",
          "name": "pickuptime",
          "type": "uint256"
        }
      ],
      "name": "Shipmentintransit",
      "type": "event"
    },
    {
      "anonymous": false,
      "inputs": [
        {
          "indexed": true,
          "internalType": "address",
          "name": "sender",
          "type": "address"
        },
        {
          "indexed": true,
          "internalType": "address",
          "name": "receiver",
          "type": "address"
        },
        {
          "indexed": false,
          "internalType": "uint256",
          "name": "amount",
          "type": "uint256"
        }
      ],
      "name": "Shipmentpaid",
      "type": "event"
    },
    {
      "inputs": [
        {
          "internalType": "address",
          "name": "_sender",
          "type": "address"
        },
        {
          "internalType": "address",
          "name": "_receiver",
          "type": "address"
        },
        {
          "internalType": "uint256",
          "name": "_index",
          "type": "uint256"
        }
      ],
      "name": "completeshipment",
      "outputs": [],
      "stateMutability": "nonpayable",
      "type": "function"
    },
    {
      "inputs": [
        {
          "internalType": "address",
          "name": "_receiver",
          "type": "address"
        },
        {
          "internalType": "uint256",
          "name": "_pickuptime",
          "type": "uint256"
        },
        {
          "internalType": "uint256",
          "name": "_distance",
          "type": "uint256"
        },
        {
          "internalType": "uint256",
          "name": "_price",
          "type": "uint256"
        }
      ],
      "name": "createshipment",
      "outputs": [],
      "stateMutability": "payable",
      "type": "function"
    },
    {
      "inputs": [],
      "name": "getalltransactions",
      "outputs": [
        {
          "components": [
            {
              "internalType": "address",
              "name": "sender",
              "type": "address"
            },
            {
              "internalType": "address",
              "name": "receiver",
              "type": "address"
            },
            {
              "internalType": "uint256",
              "name": "pickuptime",
              "type": "uint256"
            },
            {
              "internalType": "uint256",
              "name": "deliverytime",
              "type": "uint256"
            },
            {
              "internalType": "uint256",
              "name": "distance",
              "type": "uint256"
            },
            {
              "internalType": "uint256",
              "name": "price",
              "type": "uint256"
            },
            {
              "internalType": "enum Tracking.Shipmentstatus",
              "name": "status",
              "type": "uint8"
            },
            {
              "internalType": "bool",
              "name": "isPaid",
              "type": "bool"
            }
          ],
          "internalType": "struct Tracking.Typeshipment[]",
          "name": "",
          "type": "tuple[]"
        }
      ],
      "stateMutability": "view",
      "type": "function"
    },
    {
      "inputs": [
        {
          "internalType": "address",
          "name": "_sender",
          "type": "address"
        },
        {
          "internalType": "uint256",
          "name": "_index",
          "type": "uint256"
        }
      ],
      "name": "getshipment",
      "outputs": [
        {
          "internalType": "address",
          "name": "",
          "type": "address"
        },
        {
          "internalType": "address",
          "name": "",
          "type": "address"
        },
        {
          "internalType": "uint256",
          "name": "",
          "type": "uint256"
        },
        {
          "internalType": "uint256",
          "name": "",
          "type": "uint256"
        },
        {
          "internalType": "uint256",
          "name": "",
          "type": "uint256"
        },
        {
          "internalType": "uint256",
          "name": "",
          "type": "uint256"
        },
        {
          "internalType": "enum Tracking.Shipmentstatus",
          "name": "",
          "type": "uint8"
        },
        {
          "internalType": "bool",
          "name": "",
          "type": "bool"
        }
      ],
      "stateMutability": "view",
      "type": "function"
    },
    {
      "inputs": [
        {
          "internalType": "address",
          "name": "_sender",
          "type": "address"
        }
      ],
      "name": "getshipmentscount",
      "outputs": [
        {
          "internalType": "uint256",
          "name": "",
          "type": "uint256"
        }
      ],
      "stateMutability": "view",
      "type": "function"
    },
    {
      "inputs": [],
      "name": "shipmentcount",
      "outputs": [
        {
          "internalType": "uint256",
          "name": "",
          "type": "uint256"
        }
      ],
      "stateMutability": "view",
      "type": "function"
    },
    {
      "inputs": [
        {
          "internalType": "address",
          "name": "",
          "type": "address"
        },
        {
          "internalType": "uint256",
          "name": "",
          "type": "uint256"
        }
      ],
      "name": "shipments",
      "outputs": [
        {
          "internalType": "address",
          "name": "sender",
          "type": "address"
        },
        {
          "internalType": "address",
          "name": "receiver",
          "type": "address"
        },
        {
          "internalType": "uint256",
          "name": "pickuptime",
          "type": "uint256"
        },
        {
          "internalType": "uint256",
          "name": "deliverytime",
          "type": "uint256"
        },
        {
          "internalType": "uint256",
          "name": "distance",
          "type": "uint256"
        },
        {
          "internalType": "uint256",
          "name": "price",
          "type": "uint256"
        },
        {
          "internalType": "enum Tracking.Shipmentstatus",
          "name": "status",
          "type": "uint8"
        },
        {
          "internalType": "bool",
          "name": "isPaid",
          "type": "bool"
        }
      ],
      "stateMutability": "view",
      "type": "function"
    },
    {
      "inputs": [
        {
          "internalType": "address",
          "name": "_sender",
          "type": "address"
        },
        {
          "internalType": "address",
          "name": "_receiver",
          "type": "address"
        },
        {
          "internalType": "uint256",
          "name": "_index",
          "type": "uint256"
        }
      ],
      "name": "startshipment",
      "outputs": [],
      "stateMutability": "nonpayable",
      "type": "function"
    }
  ],
  "bytecode": "0x608060405234801561001057600080fd5b5060006001819055506119b3806100286000396000f3fe60806040526004361061007b5760003560e01c80636ed7bca71161004e5780636ed7bca7146101705780639a0dbe241461018c5780639ae3ff25146101b7578063cb6d4730146101e05761007b565b806340c726391461008057806347767f60146100bd5780634e841250146100e85780635667e02f1461012c575b600080fd5b34801561008c57600080fd5b506100a760048036038101906100a2919061118b565b610209565b6040516100b491906111d1565b60405180910390f35b3480156100c957600080fd5b506100d2610254565b6040516100df91906113ee565b60405180910390f35b3480156100f457600080fd5b5061010f600480360381019061010a919061143c565b6103de565b6040516101239897969594939291906114a9565b60405180910390f35b34801561013857600080fd5b50610153600480360381019061014e919061143c565b6105c8565b6040516101679897969594939291906114a9565b60405180910390f35b61018a60048036038101906101859190611527565b610687565b005b34801561019857600080fd5b506101a1610af2565b6040516101ae91906111d1565b60405180910390f35b3480156101c357600080fd5b506101de60048036038101906101d9919061158e565b610af8565b005b3480156101ec57600080fd5b506102076004803603810190610202919061158e565b610ecc565b005b60008060008373ffffffffffffffffffffffffffffffffffffffff1673ffffffffffffffffffffffffffffffffffffffff168152602001908152602001600020805490509050919050565b60606002805480602002602001604051908101604052809291908181526020016000905b828210156103d55783829060005260206000209060070201604051806101000160405290816000820160009054906101000a900473ffffffffffffffffffffffffffffffffffffffff1673ffffffffffffffffffffffffffffffffffffffff1673ffffffffffffffffffffffffffffffffffffffff1681526020016001820160009054906101000a900473ffffffffffffffffffffffffffffffffffffffff1673ffffffffffffffffffffffffffffffffffffffff1673ffffffffffffffffffffffffffffffffffffffff168152602001600282015481526020016003820154815260200160048201548152602001600582015481526020016006820160009054906101000a900460ff16600281111561039557610394611236565b5b60028111156103a7576103a6611236565b5b81526020016006820160019054906101000a900460ff16151515158152505081526020019060010190610278565b50505050905090565b60008060008060008060008060008060008c73ffffffffffffffffffffffffffffffffffffffff1673ffffffffffffffffffffffffffffffffffffffff1681526020019081526020016000208a8154811061043c5761043b6115e1565b5b9060005260206000209060070201604051806101000160405290816000820160009054906101000a900473ffffffffffffffffffffffffffffffffffffffff1673ffffffffffffffffffffffffffffffffffffffff1673ffffffffffffffffffffffffffffffffffffffff1681526020016001820160009054906101000a900473ffffffffffffffffffffffffffffffffffffffff1673ffffffffffffffffffffffffffffffffffffffff1673ffffffffffffffffffffffffffffffffffffffff168152602001600282015481526020016003820154815260200160048201548152602001600582015481526020016006820160009054906101000a900460ff16600281111561054f5761054e611236565b5b600281111561056157610560611236565b5b81526020016006820160019054906101000a900460ff1615151515815250509050806000015181602001518260400151836060015184608001518560a001518660c001518760e0015198509850985098509850985098509850509295985092959890939650565b600060205281600052604060002081815481106105e457600080fd5b9060005260206000209060070201600091509150508060000160009054906101000a900473ffffffffffffffffffffffffffffffffffffffff16908060010160009054906101000a900473ffffffffffffffffffffffffffffffffffffffff16908060020154908060030154908060040154908060050154908060060160009054906101000a900460ff16908060060160019054906101000a900460ff16905088565b8034146106c9576040517f08c379a00000000000000000000000000000000000000000000000000000000081526004016106c090611693565b60405180910390fd5b60006040518061010001604052803373ffffffffffffffffffffffffffffffffffffffff1681526020018673ffffffffffffffffffffffffffffffffffffffff168152602001858152602001600081526020018481526020018381526020016000600281111561073c5761073b611236565b5b81526020016000151581525090506000803373ffffffffffffffffffffffffffffffffffffffff1673ffffffffffffffffffffffffffffffffffffffff16815260200190815260200160002081908060018154018082558091505060019003906000526020600020906007020160009091909190915060008201518160000160006101000a81548173ffffffffffffffffffffffffffffffffffffffff021916908373ffffffffffffffffffffffffffffffffffffffff16021790555060208201518160010160006101000a81548173ffffffffffffffffffffffffffffffffffffffff021916908373ffffffffffffffffffffffffffffffffffffffff16021790555060408201518160020155606082015181600301556080820151816004015560a0820151816005015560c08201518160060160006101000a81548160ff0219169083600281111561089357610892611236565b5b021790555060e08201518160060160016101000a81548160ff0219169083151502179055505050600160008154809291906108cd906116e2565b919050555060026040518061010001604052803373ffffffffffffffffffffffffffffffffffffffff1681526020018773ffffffffffffffffffffffffffffffffffffffff168152602001868152602001600081526020018581526020018481526020016000600281111561094557610944611236565b5b815260200160001515815250908060018154018082558091505060019003906000526020600020906007020160009091909190915060008201518160000160006101000a81548173ffffffffffffffffffffffffffffffffffffffff021916908373ffffffffffffffffffffffffffffffffffffffff16021790555060208201518160010160006101000a81548173ffffffffffffffffffffffffffffffffffffffff021916908373ffffffffffffffffffffffffffffffffffffffff16021790555060408201518160020155606082015181600301556080820151816004015560a0820151816005015560c08201518160060160006101000a81548160ff02191690836002811115610a5b57610a5a611236565b5b021790555060e08201518160060160016101000a81548160ff02191690831515021790555050508473ffffffffffffffffffffffffffffffffffffffff163373ffffffffffffffffffffffffffffffffffffffff167f14117806a14c26ed553828ad1543a0e32c87471ef8bc85b97c6e1df697e7df8e868686604051610ae39392919061172a565b60405180910390a35050505050565b60015481565b60008060008573ffffffffffffffffffffffffffffffffffffffff1673ffffffffffffffffffffffffffffffffffffffff1681526020019081526020016000208281548110610b4a57610b496115e1565b5b90600052602060002090600702019050600060028381548110610b7057610b6f6115e1565b5b906000526020600020906007020190508373ffffffffffffffffffffffffffffffffffffffff168260010160009054906101000a900473ffffffffffffffffffffffffffffffffffffffff1673ffffffffffffffffffffffffffffffffffffffff1614610c12576040517f08c379a0000000000000000000000000000000000000000000000000000000008152600401610c09906117ad565b60405180910390fd5b60016002811115610c2657610c25611236565b5b8260060160009054906101000a900460ff166002811115610c4a57610c49611236565b5b14610c8a576040517f08c379a0000000000000000000000000000000000000000000000000000000008152600401610c8190611819565b60405180910390fd5b8160060160019054906101000a900460ff1615610cdc576040517f08c379a0000000000000000000000000000000000000000000000000000000008152600401610cd390611885565b60405180910390fd5b60028260060160006101000a81548160ff02191690836002811115610d0457610d03611236565b5b021790555060028160060160006101000a81548160ff02191690836002811115610d3157610d30611236565b5b02179055504281600301819055504282600301819055506000826005015490508260000160009054906101000a900473ffffffffffffffffffffffffffffffffffffffff1673ffffffffffffffffffffffffffffffffffffffff166108fc829081150290604051600060405180830381858888f19350505050158015610dbb573d6000803e3d6000fd5b5060018360060160016101000a81548160ff02191690831515021790555060018260060160016101000a81548160ff0219169083151502179055508473ffffffffffffffffffffffffffffffffffffffff168673ffffffffffffffffffffffffffffffffffffffff167faae0b7266be6bd0e89fc375b7e11f31ea9a58a0a7bd17c1b9bd740e6b2d4a2158560030154604051610e5791906111d1565b60405180910390a38473ffffffffffffffffffffffffffffffffffffffff168673ffffffffffffffffffffffffffffffffffffffff167f0fb69ef84ac509be7da9a6f3b42fd923475a307e4b16eec491f7af9ef5bd6f6f83604051610ebc91906111d1565b60405180910390a3505050505050565b60008060008573ffffffffffffffffffffffffffffffffffffffff1673ffffffffffffffffffffffffffffffffffffffff1681526020019081526020016000208281548110610f1e57610f1d6115e1565b5b90600052602060002090600702019050600060028381548110610f4457610f436115e1565b5b906000526020600020906007020190508373ffffffffffffffffffffffffffffffffffffffff168260010160009054906101000a900473ffffffffffffffffffffffffffffffffffffffff1673ffffffffffffffffffffffffffffffffffffffff1614610fe6576040517f08c379a0000000000000000000000000000000000000000000000000000000008152600401610fdd906118f1565b60405180910390fd5b60006002811115610ffa57610ff9611236565b5b8260060160009054906101000a900460ff16600281111561101e5761101d611236565b5b1461105e576040517f08c379a00000000000000000000000000000000000000000000000000000000081526004016110559061195d565b60405180910390fd5b60018260060160006101000a81548160ff0219169083600281111561108657611085611236565b5b021790555060018160060160006101000a81548160ff021916908360028111156110b3576110b2611236565b5b02179055508373ffffffffffffffffffffffffffffffffffffffff168573ffffffffffffffffffffffffffffffffffffffff167f4791fa1315b370c0eb8257013332eb42389bb2c34c84272663ba9e7bdd945c29846002015460405161111991906111d1565b60405180910390a35050505050565b600080fd5b600073ffffffffffffffffffffffffffffffffffffffff82169050919050565b60006111588261112d565b9050919050565b6111688161114d565b811461117357600080fd5b50565b6000813590506111858161115f565b92915050565b6000602082840312156111a1576111a0611128565b5b60006111af84828501611176565b91505092915050565b6000819050919050565b6111cb816111b8565b82525050565b60006020820190506111e660008301846111c2565b92915050565b600081519050919050565b600082825260208201905092915050565b6000819050602082019050919050565b6112218161114d565b82525050565b611230816111b8565b82525050565b7f4e487b7100000000000000000000000000000000000000000000000000000000600052602160045260246000fd5b6003811061127657611275611236565b5b50565b600081905061128782611265565b919050565b600061129782611279565b9050919050565b6112a78161128c565b82525050565b60008115159050919050565b6112c2816112ad565b82525050565b610100820160008201516112df6000850182611218565b5060208201516112f26020850182611218565b5060408201516113056040850182611227565b5060608201516113186060850182611227565b50608082015161132b6080850182611227565b5060a082015161133e60a0850182611227565b5060c082015161135160c085018261129e565b5060e082015161136460e08501826112b9565b50505050565b600061137683836112c8565b6101008301905092915050565b6000602082019050919050565b600061139b826111ec565b6113a581856111f7565b93506113b083611208565b8060005b838110156113e15781516113c8888261136a565b97506113d383611383565b9250506001810190506113b4565b5085935050505092915050565b600060208201905081810360008301526114088184611390565b905092915050565b611419816111b8565b811461142457600080fd5b50565b60008135905061143681611410565b92915050565b6000806040838503121561145357611452611128565b5b600061146185828601611176565b925050602061147285828601611427565b9150509250929050565b6114858161114d565b82525050565b6114948161128c565b82525050565b6114a3816112ad565b82525050565b6000610100820190506114bf600083018b61147c565b6114cc602083018a61147c565b6114d960408301896111c2565b6114e660608301886111c2565b6114f360808301876111c2565b61150060a08301866111c2565b61150d60c083018561148b565b61151a60e083018461149a565b9998505050505050505050565b6000806000806080858703121561154157611540611128565b5b600061154f87828801611176565b945050602061156087828801611427565b935050604061157187828801611427565b925050606061158287828801611427565b91505092959194509250565b6000806000606084860312156115a7576115a6611128565b5b60006115b586828701611176565b93505060206115c686828701611176565b92505060406115d786828701611427565b9150509250925092565b7f4e487b7100000000000000000000000000000000000000000000000000000000600052603260045260246000fd5b600082825260208201905092915050565b7f5061796d656e7420616d6f756e74206d757374206d617463682074686520707260008201527f6963650000000000000000000000000000000000000000000000000000000000602082015250565b600061167d602383611610565b915061168882611621565b604082019050919050565b600060208201905081810360008301526116ac81611670565b9050919050565b7f4e487b7100000000000000000000000000000000000000000000000000000000600052601160045260246000fd5b60006116ed826111b8565b91507fffffffffffffffffffffffffffffffffffffffffffffffffffffffffffffffff820361171f5761171e6116b3565b5b600182019050919050565b600060608201905061173f60008301866111c2565b61174c60208301856111c2565b61175960408301846111c2565b949350505050565b7f496e76616c696420726563656976657200000000000000000000000000000000600082015250565b6000611797601083611610565b91506117a282611761565b602082019050919050565b600060208201905081810360008301526117c68161178a565b9050919050565b7f736869706d656e74206e6f7420696e207472616e736974000000000000000000600082015250565b6000611803601783611610565b915061180e826117cd565b602082019050919050565b60006020820190508181036000830152611832816117f6565b9050919050565b7f736869706d656e7420616c726561647920706169640000000000000000000000600082015250565b600061186f601583611610565b915061187a82611839565b602082019050919050565b6000602082019050818103600083015261189e81611862565b9050919050565b7f696e76616c696420726563656976657200000000000000000000000000000000600082015250565b60006118db601083611610565b91506118e6826118a5565b602082019050919050565b6000602082019050818103600083015261190a816118ce565b9050919050565b7f736869706d656e7420697320616c726561647920696e207472616e7369740000600082015250565b6000611947601e83611610565b915061195282611911565b602082019050919050565b600060208201905081810360008301526119768161193a565b905091905056fea264697066735822122015f2a844f25a0561419600870964523b8c611e26648ae2c43d64dbfb0e42cd4464736f6c63430008180033",
  "linkReferences": {},
  "deployedLinkReferences": {}
}